{
    "contractName": "fixArry",
    "abi": [
        {
            "inputs": [
                {
                    "internalType": "uint256",
                    "name": "",
                    "type": "uint256"
                }
            ],
            "name": "arr",
            "outputs": [
                {
                    "internalType": "uint256",
                    "name": "",
                    "type": "uint256"
                }
            ],
            "stateMutability": "view",
            "type": "function"
        },
        {
            "inputs": [],
            "name": "getarr",
            "outputs": [
                {
                    "internalType": "uint256[5]",
                    "name": "",
                    "type": "uint256[5]"
                }
            ],
            "stateMutability": "view",
            "type": "function"
        },
        {
            "inputs": [],
            "name": "getlength",
            "outputs": [
                {
                    "internalType": "uint256",
                    "name": "",
                    "type": "uint256"
                }
            ],
            "stateMutability": "view",
            "type": "function"
        },
        {
            "inputs": [],
            "name": "init",
            "outputs": [],
            "stateMutability": "nonpayable",
            "type": "function"
        }
    ],
    "bytecode": "61012060405260016080908152600260a052602160c052600460e052600561010081905261002f91600091610042565b5034801561003c57600080fd5b5061009a565b8260058101928215610075579160200282015b82811115610075578251829060ff16905591602001919060010190610055565b50610081929150610085565b5090565b5b808211156100815760008155600101610086565b610198806100a96000396000f3fe608060405234801561001057600080fd5b506004361061004c5760003560e01c80636bc7deae1461005157806371e5ee5f1461006f578063a16d359814610090578063e1c7392a14610097575b600080fd5b6100596100a8565b6040516100669190610118565b60405180910390f35b61008261007d366004610149565b6100e3565b604051908152602001610066565b6005610082565b6100a6606460005560c8600155565b005b6100b06100fa565b6040805160a08101918290529060009060059082845b8154815260200190600101908083116100c6575050505050905090565b600081600581106100f357600080fd5b0154905081565b6040518060a001604052806005906020820280368337509192915050565b60a08101818360005b6005811015610140578151835260209283019290910190600101610121565b50505092915050565b60006020828403121561015b57600080fd5b503591905056fea26469706673582212209787225afc83c9d2c2f7e2a5868de86798901ccbf0e5ed7bec165b362157141e64736f6c63430008090033",
    "sourcePath": "/Users/lixiaolong/Desktop/solidity/固定长度数组.sol",
    "compiler": {
        "name": "solc",
        "version": "0.8.9+commit.e5eed63a"
    },
    "functionHashes": {
        "arr(uint256)": "71e5ee5f",
        "getarr()": "6bc7deae",
        "getlength()": "a16d3598",
        "init()": "e1c7392a"
    },
    "gasEstimates": {
        "creation": {
            "codeDepositCost": "81600",
            "executionCost": "infinite",
            "totalCost": "infinite"
        },
        "external": {
            "arr(uint256)": "2418",
            "getarr()": "infinite",
            "getlength()": "214",
            "init()": "44388"
        }
    }
}